:020000040800F2
:1000000018110020A1010008A944000805140008E7
:10001000A5440008990400081148000800000000E9
:10002000000000000000000000000000AF440008D5
:100030009D04000800000000AD440008B144000821
:10004000BB010008BB010008BB010008BB010008A0
:10005000BB010008BB010008BB010008BB01000890
:10006000BB010008BB010008BB010008BB01000880
:10007000BB010008BB010008BB010008BB01000870
:10008000BB010008BB010008BB010008BB01000860
:10009000BB010008BB010008BB010008BB01000850
:1000A000BB010008BB010008BB010008BB01000840
:1000B000BB010008BB010008BB010008BB01000830
:1000C000BB010008BB010008BB010008BB01000820
:1000D000BB010008BB010008BB010008BB01000810
:1000E000BB010008BB010008BB010008BB01000800
:1000F000BB010008BB010008BB010008BB010008F0
:10010000BB010008BB010008BB010008BB010008DF
:10011000BB010008BB010008BB010008BB010008CF
:10012000BB010008BB010008BB010008BB010008BF
:10013000BB010008BB010008BB010008BB010008AF
:10014000BB010008BB010008BB010008BB0100089F
:10015000BB010008BB010008BB010008BB0100088F
:10016000BB010008BB010008BB010008BB0100087F
:10017000BB010008BB010008BB0100080000000033
:10018000BB010008BB010008DFF810D000F072F9D5
:10019000004800476D480008AFF3008018110020A8
:1001A0000648804706480047FEE7FEE7FEE7FEE711
:1001B000FEE7FEE7FEE7FEE7FEE7FEE76D45000827
:1001C000890100082DE9F05F0546002092469B4614
:1001D00088460646814640241BE02846414647465D
:1001E000224600F0D9F853465A46C01A914110D31E
:1001F00011461846224600F0C0F82D1A67EB010898
:100200004F4622460120002100F0B7F817EB000905
:100210004E41201EA4F10104DFDC484631462A4647
:100220004346BDE8F09FD2B201E000F8012B491E21
:10023000FBD270470022F6E710B513460A46044683
:100240001946FFF7F0FF204610BD2DE9FE4F81EA69
:10025000030404F0004421F0004100944FF0000B2F
:1002600023F0004350EA01045ED052EA03045BD05D
:10027000C3F30A54C1F30A552C44A4F2F334019495
:10028000A0FB0254C1F3130141F48011C3F3130323
:1002900043F4801301FB024400FB034E840A970AD7
:1002A00044EA815447EA8357A4FB076802958D0A04
:1002B00005FB07854FEA932C04FB0C542705029D90
:1002C0004FEA065847EA1637B5EB08056EEB070C00
:1002D000870E920E47EA811742EA8312A7FB0201BA
:1002E000B6EB0B0164EB00042B0D43EA0C335E18F4
:1002F00044EB1C50DA465146E7FB0201C5F31304F8
:100300004FEA0B3343EA14534FEA0432019C43EAA9
:100310000603A4F10C040294009CCDE900B400F0A3
:100320005AF803B0BDE8F08F00200146F9E70EB59A
:1003300040F2334102910021CDE900110A460B46FB
:1003400000F049F803B000BDC1F30A5210B5C1F383
:10035000130140F2FF3341F480119A4201DA002088
:1003600010BD40F233439A42A2F2334203DC5242C0
:1003700000F012F810BD904010BD202A04DB203A96
:1003800000FA02F1002070479140C2F1200320FAE8
:1003900003F3194390407047202A04DB203A21FAE6
:1003A00002F00021704721FA02F3D040C2F120028E
:1003B000914008431946704710B5141E73F10004AC
:1003C00008DA401C41F1000192185B411A4301D147
:1003D00020F0010010BD2DE9F04D92469B4611B171
:1003E000B1FA81F202E0B0FA80F220329046FFF7D3
:1003F000C4FF04460F4640EA0A0041EA0B01534697
:100400005A46084313D0114653EA010019D0C8F1E7
:1004100040025046FFF7C0FF05460E46504659467B
:100420004246FFF7AAFF084305D0012004E020461A
:100430003946BDE8F08D0020054346EAE0762C43BE
:1004400037430A986305E40AA0EB08000022FD0A7E
:1004500044EA47540A3002D500200146E9E7010585
:1004600010196941DDE9084500196941BDE8F04D01
:10047000A2E70000064C074D06E0E06840F00103EB
:1004800094E8070098471034AC42F6D3FFF780FE9B
:10049000149000083490000800BFFEE7704772B661
:1004A00000BFFEE770B50446B3F5804F13D1D1E924
:1004B000000540EA05108D6840EA05208D69284353
:1004C0008D8940EA054054F82250064E35402843B5
:1004D00044F8220003E06FF0704044F8220000204E
:1004E00070BD00000000F0CF70B50246086852F8F9
:1004F000200020F001000E6842F8260088680828D5
:1005000001D1402300E00023486818438E6830433F
:10051000CE6830430E6930434E693043CE69304374
:100520000E6A30434E6A30438E6A3043CE6A30439F
:100530000E6B40EA060488690443C86B0443074D08
:1005400045F4806545F4E025086852F82000A8438A
:1005500020430E6842F82600002070BD7FFB080093
:1005600010B50346D1E9000440EA04108C6840EA63
:1005700004208C8940EA0444088A401E44EA00545E
:10058000087D801E44EA00608C692043541C53F8A7
:10059000244004F040442043541C43F8240000202D
:1005A00010BD000070B5044600F050F9064625461F
:1005B000681C10B104480078054400BF00F046F9FB
:1005C000801BA842FAD370BD1800002000B587B088
:1005D000142102A8FFF72EFE1B48006808B107B0DF
:1005E00000BD01201849086000BF00200190174895
:1005F000006840F00100154908600846006800F0F6
:100600000100019000BF00BF4FF6807002900220F1
:10061000039000200490032005900C20069002A96E
:100620000B4800F019F84EF2B370029002200390CC
:1006300000200490032005900C20069002A9054894
:1006400000F00AF800BFCAE708000020383802406E
:1006500000100240000C0240F8B502460B4600258F
:10066000002400200021D6E0012606FA01F51E68CC
:1006700006EA0504AC4274D11E7906F00306012E89
:1006800004D01E7906F00306022E13D190684F00A5
:100690000326BE40B0434F00DE68BE40304390604A
:1006A000506801268E40B0431E79C6F300168E4076
:1006B000304350601E7906F00306032E09D0D0683F
:1006C0004F000326BE40B0434F009E68BE403043FB
:1006D000D0601E7906F00306022E13D1CF0802F176
:1006E000200656F827004E07F70E0F26BE40B043EF
:1006F0004F07FF0E1E69BE403043CF0802F12006AF
:1007000046F8270010684F000326BE40B0431E790C
:1007100006F003064F00BE40304310605E6806F4EA
:100720004036002E76D000BF002600963C4E36683C
:1007300046F480463A4F3E603E46366806F48046B0
:10074000009600BF00BF374E8F0856F827008E076F
:10075000370F0F26BE40B043334EB24202D10026BF
:1007600024E057E0314EB24201D101261EE0304E66
:10077000B24201D1022619E02E4EB24201D1032627
:1007800014E02D4EB24201D104260FE02B4EB242AE
:1007900001D105260AE02A4EB24201D1062605E023
:1007A000284EB24201D1072600E008268F073F0FEE
:1007B000BE4030431B4E8F0846F82700224E30685B
:1007C000A0435E6806F4801606B120431E4E3060DA
:1007D000361D3068A0435E6806F4001606B120435B
:1007E000194E361D3060184E361F3068A0435E68C3
:1007F00006F4003606B12043134E361F3060361F14
:100800003068A0435E6806F4803606B120430E4E81
:10081000083E3060491C1029FFF426AFF8BD0000E7
:100820004438024008380140000002400004024001
:1008300000080240000C0240001002400014024078
:1008400000180240001C0240083C014001480068BA
:100850007047000010000020034800680349097831
:10086000084401490860704710000020180000206B
:1008700010B50D48006840F400700B490860084648
:10088000006840F4806008600846006840F48070AA
:100890000860032000F092F80F2000F007F800F045
:1008A0002BF8002010BD0000003C024070B504464B
:1008B0000E4800784FF47A71B1FBF0F00C490968EA
:1008C000B1FBF0F5284600F029FC08B1012070BD0D
:1008D000102C07D200222146501E00F031F80548A6
:1008E000046001E00120F2E70020F0E7180000209A
:1008F0001C0000201400002008B500BF002000905C
:100900000E48006840F480400C49086008460068C2
:1009100000F48040009000BF00BF00BF00200090A6
:10092000081F006840F08050091F086008460068F2
:1009300000F08050009000BF00BF08BD4438024066
:100940002DE9F05F80460D461646002703F062FF52
:10095000074639462A46334601F00700C0F1070A28
:10096000BAF1040F02D94FF0040A01E0C0F1070AFE
:10097000D14600F1040ABAF1070F02D24FF0000A83
:1009800001E0A0F1030AD4464FF0010A0AFA09FA7D
:10099000AAF1010A0AEA020A0AFA0CFA4FF0010B5C
:1009A0000BFA0CFBABF1010B0BEA030B4AEA0B044D
:1009B0002146404603F036FFBDE8F09F00BF00F03F
:1009C0000702064B19684FF6FF031940044B0B430F
:1009D00043EA0221014B196000BF70470CED00E0B3
:1009E0000000FA0570B504460D460CB9012070BD33
:1009F0005848006800F00700A84209D255490D7018
:100A00000846006800F00700A84201D00120EEE788
:100A1000207800F0020002281DD1207800F00400A8
:100A2000042805D14C48006840F4E0504A49086069
:100A3000207800F00800082805D14748006840F4F5
:100A40006040454908604448006820F0F000A16813
:100A5000084341490860207800F00100A8B36068AD
:100A6000012807D13C4808380068C0F34040B8B9B5
:100A70000120BCE76068022802D06068032807D123
:100A8000354808380068C0F3406048B90120AEE737
:100A9000314808380068C0F3400008B90120A6E7D3
:100AA0002D48006820F00300616808432A49086067
:100AB000FFF7CCFE064609E0FFF7C8FE801B41F2B7
:100AC0008831884202D9032091E707E02248006874
:100AD00000F00C006168B0EB810FEDD11D4800689B
:100AE00000F00700A84209D91A490D7008460068AD
:100AF00000F00700A84201D0012078E7207800F03C
:100B00000400042807D11448006820F4E050E1688C
:100B1000084311490860207800F00800082808D12F
:100B20000D48006820F46040216940EAC1000A498C
:100B3000086000F019F808490968C1F30311074A71
:100B4000515CC8400649086006480068FFF7AEFEE1
:100B500000204CE7003C024008380240FC8F0008AF
:100B60001C000020140000202DE9F047002400257F
:100B70000026A1462548006800F00C0020B104289A
:100B800005D008283AD105E0DFF8849039E0DFF895
:100B9000849036E01D48001F006800F03F041B48A9
:100BA000001F006800F4800078B11A481749091F37
:100BB0000968C1F38811A0FB017001462246002399
:100BC0003846FFF7FFFA05460EE011480F49091FA6
:100BD0000968C1F38811A0FB017001462246002379
:100BE0003846FFF7EFFA05460848001F0068C0F3D3
:100BF0000140401C4600B5FBF6F902E0DFF810901A
:100C000000BF00BF4846BDE8F0870000083802403A
:100C10000024F40000127A00F8B504460CB9012053
:100C2000F8BD207800F00100002874D0F948006871
:100C300000F00C0004280DD0F648006800F00C000D
:100C4000082813D1F348001F006800F48000B0F5B5
:100C5000800F0BD1EF4808380068C0F340400028EF
:100C600059D06068002856D10120D9E700BF6068DC
:100C7000B0F5803F08D1E7480838006840F480307C
:100C8000E449083908601EE06068B0F5A02F0DD176
:100C9000E0480838006840F48020DE4908390860E0
:100CA0000846006840F4803008600CE0D9480838F5
:100CB000006820F48030D749083908600846006889
:100CC00020F48020086000BF606890B1FFF7BEFD8F
:100CD000054606E0FFF7BAFD401B642801D9032052
:100CE0009EE7CC4808380068C0F340400028F1D0A7
:100CF00011E0FFF7ABFD054606E0FFF7A7FD401B3F
:100D0000642801D903208BE7C24808380068C0F383
:100D100040400028F1D1207800F0020002285FD185
:100D2000BC48006800F00C0058B1BA48006800F0F8
:100D30000C0008281CD1B748001F006800F4800090
:100D4000B0B9B44808380068C0F3400020B1E0688A
:100D5000012801D0012063E7AE480838006820F080
:100D6000F800216940EAC100AA490839086037E063
:100D7000E06800B30120A8490860FFF767FD054659
:100D800006E0FFF763FD401B022801D9032047E777
:100D9000A04808380068C0F340000028F1D09D4802
:100DA0000838006820F0F800216940EAC10099493C
:100DB0000839086014E0002097490860FFF746FDF5
:100DC000054606E0FFF742FD401B022801D903203B
:100DD00026E7904808380068C0F340000028F1D1A9
:100DE000207800F0080008282CD16069A8B1012003
:100DF0008A490860FFF72AFD054606E0FFF726FD51
:100E0000401B022801D903200AE782486C300068A1
:100E1000C0F340000028F1D014E000207F490860B2
:100E2000FFF714FD054606E0FFF710FD401B022802
:100E300001D90320F4E677486C300068C0F3400025
:100E40000028F1D1207800F00400042870D1002798
:100E500070483830006800F0805090B900BF002022
:100E600000906C483830006840F080506949383153
:100E700008600846006800F08050009000BF00BF86
:100E800001276748006800F48070B0B964480068C2
:100E900040F4807062490860FFF7D8FC054606E020
:100EA000FFF7D4FC401B022801D90320B8E65C48B8
:100EB000006800F480700028F2D000BFA06801280C
:100EC00008D154486830006840F001005149683149
:100ED00008601DE0A06805280DD14E486830006804
:100EE00040F004004B49683108600846006840F053
:100EF000010008600CE047486830006820F00100FD
:100F00004449683108600846006820F00400086021
:100F100000BFA068A8B1FFF799FC054609E0FFF7FC
:100F200095FC401B41F28831884202D9032077E6C4
:100F300026E0384868300068C0F340000028EED052
:100F400013E0FFF783FC054608E0FFF77FFC401B3A
:100F500041F28831884201D9032061E62D4868308A
:100F60000068C0F340000028EFD1012F07D12948C5
:100F70003830006820F0805026493831086000BFC2
:100F8000A069002845D02348006800F00C0008281C
:100F90005DD0A069022845D100201F490866FFF7EF
:100FA00055FC054606E0FFF751FC401B022801D91D
:100FB000032035E6174808380068C0F34060002871
:100FC000F1D1D4E907010843616A40EA81110122A5
:100FD000A06AC2EB500041EA00412C20005D41EACA
:100FE00000600C49091F086001200B490866FFF7E3
:100FF0002DFC054606E0FFF729FC401B022801D91D
:1010000003200DE6034808380068C0F3406000285C
:10101000F1D049E00838024000004742800E4742C4
:1010200000700040002021490866FFF70FFC0546CC
:1010300006E0FFF70BFC401B022801D90320EFE577
:101040001B480068C0F340600028F2D12CE0A06982
:10105000012800D1E4E51648001D0668A0690128B2
:1010600020D006F48001E06981421BD106F03F01E7
:10107000206A814216D147F6C0703040616AB0EBF9
:10108000811F0FD106F440310122A06AC2EB50004B
:10109000B1EB004F06D106F070612C20005DB1EB82
:1010A000006F01D00120BBE50020B9E500004742F8
:1010B0000038024070B504460E4615460CB90120B2
:1010C00070BD94F8490028B9002084F848002046F3
:1010D00000F01FF804F108012068FFF705FA314617
:1010E000A2682068FFF73CFA2946236BD4E9010285
:1010F000FFF7D8F9A168206850F8210040F00100FE
:10110000A268216841F82200012084F849000020EB
:10111000D6E710B50446FFF759FA10BD70B504467E
:101120002546681EB0F1807F01D301200FE0681EC4
:101130004FF0E02148610F214FF0FF3003F072FBC8
:1011400000204FF0E021886107200861002070BD79
:1011500030B502460B4600BF92F83C00012801D191
:10116000022030BD012082F83C0000BF022082F83E
:101170003D00106844681068816824F070041868A5
:10118000044310684460184D1068A8421BD01068D2
:10119000B0F1804F17D0154D1068A84213D0144DF0
:1011A0001068A8420FD0134D1068A8420BD0124D02
:1011B0001068A84207D0114D1068A84203D0104D06
:1011C0001068A84205D121F08001586801431068D9
:1011D0008160012082F83D0000BF002082F83C00C1
:1011E00000BF00BFBDE70000000001400004004058
:1011F00000080040000C0040000401400040014095
:101200000018004010B586B00446142101A8FFF76D
:1012100011F81149206888421BD100BF00200090BE
:101220000E48006840F002000C490860084600685B
:1012300000F00200009000BF00BF02200190029069
:101240000020039004900220059001A90448FFF7B4
:1012500003FA06B010BD0000000400403038024020
:10126000000402402DE9F04104460D4616460027D1
:1012700000BF94F83C00012802D10220BDE8F081B3
:10128000012084F83C0000BF36B1042E1BD0082E8C
:1012900031D00C2E5ED145E02946206803F0DCF900
:1012A0002068806940F008002168886120688069B2
:1012B00020F004002168886120688069296908435A
:1012C0002168886148E02946206803F0FDF920681C
:1012D000806940F40060216888612068806920F49A
:1012E00080602168886120688069296940EA01205E
:1012F0002168886130E02946206803F023FA2068DD
:10130000C06940F008002168C8612068C06920F009
:1013100004002168C8612068C06929690843216800
:10132000C86119E02946206803F048FA2068C069BE
:1013300040F400602168C8612068C06920F48060C2
:101340002168C8612068C069296940EA01202168D4
:10135000C86101E0012700BF00BF00BF002084F882
:101360003C0000BF384689E710B504460CB901209F
:1013700010BD94F83D0028B9002084F83C002046B8
:1013800000F026F8022084F83D00211D206803F0BB
:10139000F7F8012084F8460000BF84F83E000121E0
:1013A0003F200155402001554120015500BF00BF9D
:1013B000012084F842004320015544200155452076
:1013C000015500BF012084F83D000020D0E7000057
:1013D00008B50A4A016891420FD100BF002100916F
:1013E0000749096841F00201054A11601146096880
:1013F00001F00201009100BF00BF08BD00040040E1
:101400004038024000BFFEE770B504460026094898
:101410000588408845430021084602F0E1FD02F0BE
:101420004DFF00BF02E004490C80761CAE42FAD3A7
:1014300070BD0000700000200000086000B5074883
:10144000808845F21051884204D14FF4245002F0B4
:101450002FFF02E0292002F02BFF00BD70000020CA
:1014600010B5044649488471002C45D1F020474905
:1014700008804FF4A07048800846808845F21051DB
:10148000884210D14FF43050404908814FF4285021
:1014900048814FF42C5088814FF4F07008804FF44D
:1014A000487048801AE03948808841F663118842C4
:1014B0000DD12C20354908812B2048812A20888194
:1014C0004FF4F07008804FF44870488006E02C20FC
:1014D0002E4908812A2048812B2088812B4880882A
:1014E00045F2103188424CD14FF4A0702749088052
:1014F0004FF4F070488044E04FF4A0702349088016
:10150000F02048800846808845F21051884210D16A
:101510004FF430501D4908814FF4285048814FF452
:101520002C5088814FF4487008804FF4F070488048
:101530001AE01648808841F6631188420DD12C20AC
:10154000124908812A2048812B2088814FF4487055
:1015500008804FF4F070488006E02C200B49088189
:101560002A2048812B2088810848808845F2103144
:10157000884206D14FF4F070044908804FF4A070FF
:101580004880002002F012FC10BD00007000002016
:1015900010B503460C463848808845F21051884201
:1015A00020D13549488902F083FE181202F07AFEF4
:1015B00031494989491C88B202F07AFED8B202F05A
:1015C00071FE2D49888902F073FE201202F06AFE36
:1015D00029498989491C88B202F06AFEE0B202F00A
:1015E00061FE42E02448808841F66311884228D198
:1015F0002148807920B920480088401EC01A83B253
:101600001D49488902F054FE181202F04BFED8B270
:1016100002F048FE181202F045FED8B202F042FE77
:101620001549888902F044FE201202F03BFEE0B228
:1016300002F038FE201202F035FEE0B202F032FE77
:1016400013E00D49488902F033FE181202F02AFE19
:10165000D8B202F027FE0849888902F029FE20123C
:1016600002F020FEE0B202F01DFE034800890349AB
:101670000880891C0A8010BD70000020FEFF0760F2
:1016800000B595B000BF00200190FE48006840F012
:101690000200FC4908600846006800F00200019062
:1016A00000BF00BF4FF40040109001201190129035
:1016B0000320139010A9F448FEF7CEFF4FF020400E
:1016C000F2490860F2484860062088600021EF482F
:1016D000C16001611021416100218161C1614162EC
:1016E0004FF4805181620021C1624FF48041016357
:1016F0000021416381634FF48011C1630F20099081
:1017000000200A903C200B9000200F9005900920AB
:10171000029000200390082004900020089002AA64
:1017200009A9DA48FFF7C6FC3220FEF73BFFD320B9
:1017300002F0BEFD02F004FBD649888002F000FBF7
:10174000D449888002F0FCFAD24988800846808813
:101750004FF6FF7101EA0020CE49888002F0F0FACE
:10176000CC4989880843CB4988800846808849F25B
:10177000413188427DD0042002F09AFD02F0E0FA67
:10178000C449888002F0DCFAC249888002F0D8FAA5
:10179000C0498880084680884FF6FF7101EA002022
:1017A000BC49888002F0CCFABA4989880843B94913
:1017B00088800846808848F25251884203D147F217
:1017C0008970B4498880B348808847F2897188421B
:1017D000D0D0D42002F06CFD02F0B2FAAD4988807E
:1017E00002F0AEFAAB49888002F0AAFAA9498880D3
:1017F000084680884FF6FF7101EA0020A5498880DD
:1018000002F09EFAA34989880843A24988800846C5
:10181000808845F2103188426BD055214FF47040DA
:1018200002F056FDAA214FF2010002F051FD5221B3
:101830004FF2020002F04CFD08214FF2030002F0CB
:1018400047FD01214FF2040002F042FD4FF44540F4
:1018500002F02EFD02F074FA8E49888008468088D6
:101860004FF6FF7101EA00208A4988804CF201504E
:1018700000E03EE002F01CFD02F062FA8549898832
:101880000843844988800520FEF78CFE81488088C3
:10189000B0F5004F03D145F210507E4988807D4855
:1018A000808845F21051884223D0A12002F000FD2B
:1018B00002F046FA7749888002F042FA754988803A
:1018C000084680884FF6FF7101EA00207149888040
:1018D00002F036FA6F49898808436E4988800846C5
:1018E000808845F26171884203D141F663106949ED
:1018F00088806848808849F2413188427ED1CF2073
:1019000002F0D6FC002002F0CDFCC12002F0CAFC9F
:10191000302002F0C7FCED2002F0CAFC642002F087
:10192000C1FC032002F0BEFC122002F0BBFC8120AF
:1019300002F0B8FCE82002F0BBFC852002F0B2FC0B
:10194000102002F0AFFC7A2002F0ACFCCB2002F0B9
:10195000AFFC392002F0A6FC2C2002F0A3FC0020F2
:1019600002F0A0FC342002F09DFC022002F09AFC60
:10197000F72002F09DFC202002F094FCEA2002F007
:1019800097FC002002F08EFC002002F08BFCC020AF
:1019900002F08EFC1B2002F085FCC12002F088FCC6
:1019A000012002F07FFCC52002F082FC302002F012
:1019B00079FC302002F076FCC72002F079FCB720D9
:1019C00002F070FC362002F073FC482002F06AFC42
:1019D0003A2002F06DFC552002F064FCB12002F0C8
:1019E00067FC002002F05EFC1A2002F05BFCB620CF
:1019F00002F05EFC0A2002F055FC00E0A2E0A2200A
:101A000002F050FCF22002F053FC002002F04AFCED
:101A1000262002F04DFC012002F044FCE02002F000
:101A200047FC0F2002F03EFC2A2002F03BFC28205D
:101A300002F038FC082002F035FC0E2002F032FCE7
:101A4000082002F02FFC542002F02CFCA92002F008
:101A500029FC432002F026FC0A2002F023FC0F2080
:101A600002F020FC002002F01DFC002002F01AFC15
:101A7000002002F017FC002002F014FCE12002F02C
:101A800017FC09E03038024000040240200000202A
:101A9000040100A070000020002002F003FC1520CB
:101AA00002F000FC172002F0FDFB072002F0FAFB19
:101AB000112002F0F7FB062002F0F4FB2B2002F0CD
:101AC000F1FB562002F0EEFB3C2002F0EBFB052080
:101AD00002F0E8FB102002F0E5FB0F2002F0E2FB31
:101AE0003F2002F0DFFB3F2002F0DCFB0F2002F082
:101AF000D9FB2B2002F0DCFB002002F0D3FB0020FE
:101B000002F0D0FB012002F0CDFB3F2002F0CAFB27
:101B10002A2002F0CDFB002002F0C4FB002002F0DE
:101B2000C1FB002002F0BEFBEF2002F0BBFB112046
:101B300002F0BEFB7820FEF735FD292002F0B8FB4D
:101B400002F0A6B8FE48808847F2897188427CD1AD
:101B5000112002F0ADFB7820FEF724FD362002F0C4
:101B6000A7FB002002F09EFB3A2002F0A1FB05201B
:101B700002F098FBB22002F09BFB0C2002F092FBDB
:101B80000C2002F08FFB002002F08CFB332002F0CF
:101B900089FB332002F086FBB72002F089FB352059
:101BA00002F080FBBB2002F083FB322002F07AFBC4
:101BB000C02002F07DFB0C2002F074FBC22002F07A
:101BC00077FB012002F06EFBC32002F071FB1020B6
:101BD00002F068FBC42002F06BFB202002F062FBE5
:101BE000C62002F065FB0F2002F05CFBD02002F063
:101BF0005FFBA42002F056FBA12002F053FBE02083
:101C000002F056FBD02002F04DFB002002F04AFB10
:101C1000022002F047FB072002F044FB0A2002F0FA
:101C200041FB282002F03EFB322002F03BFB442027
:101C300002F038FB422002F035FB062002F032FBB6
:101C40000E2002F02FFB122000E056E002F02AFBEB
:101C5000142002F027FB172002F024FBE12002F001
:101C600027FBD02002F01EFB002002F01BFB02200D
:101C700002F018FB072002F015FB0A2002F012FB0D
:101C8000282002F00FFB312002F00CFB542002F060
:101C900009FB472002F006FB0E2002F003FB1C208C
:101CA00002F000FB172002F0FDFA1B2002F0FAFA06
:101CB0001E2002F0F7FA2A2002F0FAFA002002F0C1
:101CC000F1FA002002F0EEFA002002F0EBFAEF2029
:101CD00002F0E8FA2B2002F0EBFA002002F0E2FA20
:101CE000002002F0DFFA012002F0DCFA3F2002F0CF
:101CF000D9FA292002F0DCFA22E79148808845F2DF
:101D00001031884240F07C87ED2002F0D1FA0120AA
:101D100002F0C8FAFE2002F0C5FAEE2002F0C8FA7E
:101D2000DE2002F0BFFA212002F0BCFAF12002F01E
:101D3000BFFA012002F0B6FADF2002F0B9FA102053
:101D400002F0B0FAC42002F0B3FA8F2002F0AAFA2F
:101D5000C62002F0ADFA002002F0A4FAE22002F060
:101D6000A1FAE22002F09EFAE22002F09BFABF20E4
:101D700002F09EFAAA2002F095FAB02002F098FA3A
:101D80000D2002F08FFA002002F08CFA0D2002F0F4
:101D900089FA002002F086FA112002F083FA00206E
:101DA00002F080FA192002F07DFA002002F07AFA9F
:101DB000212002F077FA002002F074FA2D2002F0C0
:101DC00071FA002002F06EFA3D2002F06BFA00205A
:101DD00002F068FA5D2002F065FA002002F062FA73
:101DE0005D2002F05FFA002002F05CFAB12002F000
:101DF0005FFA802002F056FA002002F053FA8B209E
:101E000002F050FA002002F04DFA962002F04AFA51
:101E1000002002F047FAB22002F04AFA002002F055
:101E200041FA002002F03EFA022002F03BFA0020C4
:101E300002F038FA032002F035FA002002F032FAFC
:101E4000B32002F035FA002002F02CFA002002F054
:101E500029FA002002F026FA002002F023FA0020DE
:101E600002F020FA002002F01DFA002002F01AFA17
:101E7000002002F017FA002002F014FA002002F00D
:101E800011FA002002F00EFA002002F00BFA0020F6
:101E900002F008FA002002F005FA002002F002FA2F
:101EA000002002F0FFF9002002F0FCF9002002F00F
:101EB000F9F9002002F0F6F9002002F0F3F9002011
:101EC00002F0F0F9002002F0EDF9002002F0EAF94A
:101ED000002002F0E7F9B42002F0EAF98B2002F0CA
:101EE000E1F9002002F0DEF9962002F0DBF9002093
:101EF00002F0D8F9A12002F0D5F9002002F0D2F9C1
:101F0000B52002F0D5F9022002F0CCF9002002F051
:101F1000C9F9032002F0C6F9002002F0C3F9042039
:101F200002F0C0F9002002F0BDF9B62002F0C0F9BD
:101F3000002002F0B7F9002002F0B4F9B72001E068
:101F40007000002002F0B4F9002002F0ABF900208C
:101F500002F0A8F93F2002F0A5F9002002F0A2F952
:101F60005E2002F09FF9002002F09CF9642002F04C
:101F700099F9002002F096F98C2002F093F90020E4
:101F800002F090F9AC2002F08DF9002002F08AF9FD
:101F9000DC2002F087F9002002F084F9702002F0C2
:101FA00081F9002002F07EF9902002F07BF90020F8
:101FB00002F078F9EB2002F075F9002002F072F9D6
:101FC000DC2002F06FF9002002F06CF9B82002F07A
:101FD0006FF9002002F066F9002002F063F900209A
:101FE00002F060F9002002F05DF9002002F05AF9D9
:101FF000002002F057F9002002F054F9002002F00E
:1020000051F9BA2002F054F9242002F04BF90020D3
:1020100002F048F9002002F045F9002002F042F9F0
:10202000C12002F045F9202002F03CF9002002F026
:1020300039F9542002F036F9002002F033F9FF207C
:1020400002F030F9002002F02DF9C22002F030F940
:102050000A2002F027F9002002F024F9042002F0FF
:1020600021F9002002F01EF9C32002F021F93C20E2
:1020700002F018F9002002F015F93A2002F012F9E6
:10208000002002F00FF9392002F00CF9002002F0D4
:1020900009F9372002F006F9002002F003F93C208C
:1020A00002F000F9002002F0FDF8362002F0FAF804
:1020B000002002F0F7F8322002F0F4F8002002F0DD
:1020C000F1F82F2002F0EEF8002002F0EBF82C20BF
:1020D00002F0E8F8002002F0E5F8292002F0E2F82A
:1020E000002002F0DFF8262002F0DCF8002002F0E9
:1020F000D9F8242002F0D6F8002002F0D3F82420EA
:1021000002F0D0F8002002F0CDF8232002F0CAF847
:10211000002002F0C7F83C2002F0C4F8002002F0D2
:10212000C1F8362002F0BEF8002002F0BBF83220E1
:1021300002F0B8F8002002F0B5F82F2002F0B2F853
:10214000002002F0AFF82C2002F0ACF8002002F0E2
:10215000A9F8292002F0A6F8002002F0A3F8262012
:1021600002F0A0F8002002F09DF8242002F09AF876
:10217000002002F097F8242002F094F8002002F0EA
:1021800091F8232002F08EF8002002F08BF8C42092
:1021900002F08EF8622002F085F8002002F082F84A
:1021A000052002F07FF8002002F07CF8842002F085
:1021B00079F8002002F076F8F02002F073F80020A1
:1021C00002F070F8182002F06DF8002002F06AF8B2
:1021D000A42002F067F8002002F064F8182002F052
:1021E00061F8002002F05EF8502002F05BF8002059
:1021F00002F058F80C2002F055F8002002F052F8D6
:10220000172002F04FF8002002F04CF8952002F061
:1022100049F8002002F046F8F32002F043F80020CD
:1022200002F040F8E62002F03DF8002002F03AF813
:10223000C52002F03DF8322002F034F8002002F010
:1022400031F8442002F02EF8002002F02BF865202F
:1022500002F028F8002002F025F8762002F022F89B
:10226000002002F01FF8882002F01CF8002002F085
:1022700019F8C62002F01CF8202002F013F8002004
:1022800002F010F8172002F00DF8002002F00AF812
:10229000012002F007F8002002F004F8C72002F045
:1022A00007F8002001F0FEFF002001F0FBFF0020F6
:1022B00001F0F8FF002001F0F5FFC82001F0F8FF61
:1022C000002001F0EFFF002001F0ECFF002001F002
:1022D000E9FF002001F0E6FFC92001F0E9FF00203E
:1022E00001F0E0FF002001F0DDFF002001F0DAFF47
:1022F000002001F0D7FF002001F0D4FF002001F002
:10230000D1FF002001F0CEFF002001F0CBFF002024
:1023100001F0C8FF002001F0C5FF002001F0C2FF5E
:10232000002001F0BFFF002001F0BCFF002001F001
:10233000B9FF002001F0B6FF002001F0B3FFE0205C
:1023400001F0B6FF162001F0ADFF002001F0AAFF5A
:102350001C2001F0A7FF002001F0A4FF212001F0C4
:10236000A1FF002001F09EFF362001F09BFF00201E
:1023700001F098FF462001F095FF002001F092FF48
:10238000522001F08FFF002001F08CFF642001F04B
:1023900089FF002001F086FF7A2001F083FF0020F2
:1023A00001F080FF8B2001F07DFF002001F07AFF1B
:1023B000992001F077FF002001F074FFA82001F0C0
:1023C00071FF002001F06EFFB92001F06BFF0020CB
:1023D00001F068FFC42001F065FF002001F062FFFA
:1023E000CA2001F05FFF002001F05CFFD22001F065
:1023F00059FF002001F056FFD92001F053FF0020C3
:1024000001F050FFE02001F04DFF002001F04AFFF5
:10241000F32001F047FF002001F044FFE12001F02C
:1024200047FF162001F03EFF002001F03BFF1C207B
:1024300001F038FF002001F035FF222001F032FFCB
:10244000002001F02FFF362001F02CFF002001F0CA
:1024500029FF452001F026FF002001F023FF522034
:1024600001F020FF002001F01DFF642001F01AFFA1
:10247000002001F017FF7A2001F014FF002001F086
:1024800011FF8B2001F00EFF002001F00BFF9920BF
:1024900001F008FF002001F005FFA82001F002FF75
:1024A000002001F0FFFEB92001F0FCFE002001F049
:1024B000F9FEC42001F0F6FE002001F0F3FECA2070
:1024C00001F0F0FE002001F0EDFED22001F0EAFE66
:1024D000002001F0E7FED82001F0E4FE002001F02A
:1024E000E1FEE02001F0DEFE002001F0DBFEF32043
:1024F00001F0D8FE002001F0D5FEE22001F0D8FE68
:10250000052001F0CFFE002001F0CCFE0B2001F0F1
:10251000C9FE002001F0C6FE1B2001F0C3FE002012
:1025200001F0C0FE342001F0BDFE002001F0BAFE33
:10253000442001F0B7FE002001F0B4FE4F2001F06E
:10254000B1FE002001F0AEFE612001F0ABFE0020E4
:1025500001F0A8FE792001F0A5FE002001F0A2FE06
:10256000882001F09FFE002001F09CFE972001F0E2
:1025700099FE002001F096FEA62001F093FE0020B7
:1025800001F090FEB72001F08DFE002001F08AFEE0
:10259000C22001F087FE002001F084FEC72001F078
:1025A00081FE002001F07EFED12001F07BFE0020A4
:1025B00001F078FED62001F075FE002001F072FED9
:1025C000DD2001F06FFE002001F06CFEF32001F031
:1025D00069FE002001F066FEE32001F069FE05209F
:1025E00001F060FE002001F05DFE0A2001F05AFEBD
:1025F000002001F057FE1C2001F054FE002001F0E5
:1026000051FE332001F04EFE002001F04BFE44202D
:1026100001F048FE002001F045FE502001F042FE8E
:10262000002001F03FFE622001F03CFE002001F09E
:1026300039FE782001F036FE002001F033FE8820BC
:1026400001F030FE002001F02DFE972001F02AFE5F
:10265000002001F027FEA62001F024FE002001F05A
:1026600021FEB72001F01EFE002001F01BFEC2205B
:1026700001F018FE002001F015FEC72001F012FE47
:10268000002001F00FFED12001F00CFE002001F02F
:1026900009FED52001F006FE002001F003FEDD203A
:1026A00001F000FE002001F0FDFDF32001F0FAFD35
:1026B000002001F0F7FDE42001F0FAFD012001F017
:1026C000F1FD002001F0EEFD012001F0EBFD002006
:1026D00001F0E8FD022001F0E5FD002001F0E2FD3F
:1026E0002A2001F0DFFD002001F0DCFD3C2001F09C
:1026F000D9FD002001F0D6FD4B2001F0D3FD0020D4
:1027000001F0D0FD5D2001F0CDFD002001F0CAFDFB
:10271000742001F0C7FD002001F0C4FD842001F009
:10272000C1FD002001F0BEFD932001F0BBFD0020A3
:1027300001F0B8FDA22001F0B5FD002001F0B2FDCE
:10274000B32001F0AFFD002001F0ACFDBE2001F090
:10275000A9FD002001F0A6FDC42001F0A3FD00208A
:1027600001F0A0FDCD2001F09DFD002001F09AFDBB
:10277000D32001F097FD002001F094FDDD2001F051
:1027800091FD002001F08EFDF32001F08BFD002073
:1027900001F088FDE52001F08BFD002001F082FDB5
:1027A000002001F07FFD002001F07CFD002001F001
:1027B00079FD022001F076FD002001F073FD292053
:1027C00001F070FD002001F06DFD3C2001F06AFD7C
:1027D000002001F067FD4B2001F064FD002001F0B6
:1027E00061FD5D2001F05EFD002001F05BFD7420C5
:1027F00001F058FD002001F055FD842001F052FD4C
:10280000002001F04FFD932001F04CFD002001F06D
:1028100049FDA22001F046FD002001F043FDB32058
:1028200001F040FD002001F03DFDBE2001F03AFD29
:10283000002001F037FDC42001F034FD002001F03C
:1028400031FDCD2001F02EFD002001F02BFDD32025
:1028500001F028FD002001F025FDDC2001F022FD23
:10286000002001F01FFDF32001F01CFD002001F00D
:1028700019FDE62001F01CFD112001F013FD0020E0
:1028800001F010FD342001F00DFD002001F00AFDE3
:10289000562001F007FD002001F004FD762001F034
:1028A00001FD002001F0FEFC772001F0FBFC002080
:1028B00001F0F8FC662001F0F5FC002001F0F2FCCC
:1028C000882001F0EFFC002001F0ECFC992001F0E1
:1028D000E9FC002001F0E6FCBB2001F0E3FC002055
:1028E00001F0E0FC992001F0DDFC002001F0DAFCB1
:1028F000662001F0D7FC002001F0D4FC552001F047
:10290000D1FC002001F0CEFC552001F0CBFC0020D2
:1029100001F0C8FC452001F0C5FC002001F0C2FC1C
:10292000432001F0BFFC002001F0BCFC442001F07A
:10293000B9FC002001F0B6FCE72001F0B9FC322020
:1029400001F0B0FC002001F0ADFC552001F0AAFC24
:10295000002001F0A7FC762001F0A4FC002001F08B
:10296000A1FC662001F09EFC002001F09BFC67208A
:1029700001F098FC002001F095FC672001F092FC2A
:10298000002001F08FFC872001F08CFC002001F07A
:1029900089FC992001F086FC002001F083FCBB201B
:1029A00001F080FC002001F07DFC992001F07AFC10
:1029B000002001F077FC772001F074FC002001F08A
:1029C00071FC442001F06EFC002001F06BFC5620ED
:1029D00001F068FC002001F065FC232001F062FC9E
:1029E000002001F05FFC332001F05CFC002001F0CE
:1029F00059FC452001F056FC002001F053FCE82072
:102A000001F056FC002001F04DFC002001F04AFCD2
:102A1000992001F047FC002001F044FC872001F0E0
:102A200041FC002001F03EFC882001F03BFC00202E
:102A300001F038FC772001F035FC002001F032FC79
:102A4000662001F02FFC002001F02CFC882001F012
:102A500029FC002001F026FCAA2001F023FC002024
:102A600001F020FCBB2001F01DFC002001F01AFC4D
:102A7000992001F017FC002001F014FC662001F001
:102A800011FC002001F00EFC552001F00BFC002091
:102A900001F008FC552001F005FC002001F002FCCB
:102AA000442001F0FFFB002001F0FCFB442001F07A
:102AB000F9FB002001F0F6FB552001F0F3FB0020AC
:102AC00001F0F0FBE92001F0F3FBAA2001F0EAFBA2
:102AD000002001F0E7FB002001F0E4FB002001F002
:102AE000E1FB002001F0E4FBAA2001F0DBFBCF209A
:102AF00001F0DEFB002001F0D5FB002001F0D2FB4D
:102B0000002001F0CFFB002001F0CCFB002001F001
:102B1000C9FB002001F0C6FB002001F0C3FB002030
:102B200001F0C0FB002001F0BDFB002001F0BAFB6A
:102B3000002001F0B7FB002001F0B4FB002001F001
:102B4000B1FB002001F0AEFB002001F0ABFB002048
:102B500001F0A8FB002001F0A5FBF02001F0A8FB8C
:102B6000002001F09FFB502001F09CFB002001F0B1
:102B700099FB002001F096FB002001F093FBF3206D
:102B800001F096FB002001F08DFBF92001F090FB95
:102B9000062001F087FB102001F084FB292001F0C2
:102BA00081FB002001F07EFB3A2001F081FB5520E3
:102BB00001F078FB112001F07BFB6420FDF7F2FCB3
:102BC000292001F075FB352001F072FB002001F097
:102BD00069FB512001F06CFBFF2001F063FB5320E7
:102BE00001F066FB2C2001F05DFB552001F060FB3D
:102BF000822001F057FB2C2001F05AFB01F048B86D
:102C0000FE48808845F2105188427DD155214FF40D
:102C1000704001F05DFBAA214FF2010001F058FB6A
:102C200052214FF2020001F053FB08214FF2030042
:102C300001F04EFB01214FF2040001F049FB0D2190
:102C40004FF4304001F044FB0D214BF2010001F044
:102C50003FFB0D214BF2020001F03AFB34214FF40F
:102C6000364001F035FB34214BF2016001F030FBBE
:102C700034214BF2026001F02BFB0D214FF4314067
:102C800001F026FB0D214BF2011001F021FB0D217B
:102C90004BF2021001F01CFB34214FF4374001F0DD
:102CA00017FB34214BF2017001F012FB34214BF27F
:102CB000027001F00DFB00214FF4324001F008FBDF
:102CC00000214BF2012001F003FB00214BF2022016
:102CD00001F0FEFA24214FF4384001F0F9FA2421E2
:102CE0004BF6010001F0F4FA24214BF6020001F04A
:102CF000EFFA01214FF43F4001F0EAFA0F214FF4BF
:102D0000334001F0E5FA00E0FDE30F214BF2013022
:102D100001F0DEFA0F214BF2023001F0D9FA342132
:102D20004FF4394001F0D4FA34214BF6011001F090
:102D3000CFFA34214BF6021001F0CAFA08214FF401
:102D4000354001F0C5FA08214BF2015001F0C0FAFC
:102D500008214BF2025001F0BBFA03214FF442402C
:102D600001F0B6FA24214FF43A4001F0B1FA2421DF
:102D70004BF6012001F0ACFA24214BF6022001F0C1
:102D8000A7FA00214FF43C4001F0A2FA78214BF65B
:102D9000014001F09DFA00214BF6024001F098FA43
:102DA00000214FF43D4001F093FA78214BF6015099
:102DB00001F08EFA00214BF6025001F089FA002151
:102DC0004FF43E4001F084FA64214BF6016001F0BB
:102DD0007FFA00214FF4514001F07AFA33214DF28D
:102DE000011001F075FA00214DF2021001F070FAA5
:102DF00034214DF2031001F06BFA00214DF2041062
:102E000001F066FA3A214DF2051001F061FA002155
:102E10004DF2061001F05CFA4A214DF2071001F064
:102E200057FA00214DF2081001F052FA5C214DF2E0
:102E3000091001F04DFA00214DF20A1001F048FA94
:102E400081214DF20B1001F043FA00214DF20C10DC
:102E500001F03EFAA6214DF20D1001F039FA0021E1
:102E60004DF20E1001F034FAE5214DF20F1001F091
:102E70002FFA01214DF2101001F02AFA13214DF220
:102E8000111001F025FA01214DF2121001F020FA83
:102E900054214DF2131001F01BFA01214DF21410D0
:102EA00001F016FA82214DF2151001F011FA0121FC
:102EB0004DF2161001F00CFACA214DF2171001F074
:102EC00007FA02214DF2181001F002FA00214DF22A
:102ED000191001F0FDF902214DF21A1001F0F8F974
:102EE00001214DF21B1001F0F3F902214DF21C10EB
:102EF00001F0EEF934214DF21D1001F0E9F9022143
:102F00004DF21E1001F0E4F967214DF21F1001F09F
:102F1000DFF902214DF2201001F0DAF984214DF29F
:102F2000211001F0D5F902214DF2221001F0D0F963
:102F3000A4214DF2231001F0CBF902214DF224100F
:102F400001F0C6F9B7214DF2251001F0C1F90221B7
:102F50004DF2261001F0BCF9CF214DF2271001F0FF
:102F6000B7F902214DF2281001F0B2F9DE214DF23D
:102F7000291001F0ADF902214DF22A1001F0A8F953
:102F8000F2214DF22B1001F0A3F902214DF22C1089
:102F900001F09EF9FE214DF22D1001F099F9032167
:102FA0004DF22E1001F094F910214DF22F1001F086
:102FB0008FF903214DF2301001F08AF933214DF2DF
:102FC000311001F085F903214DF2321001F080F942
:102FD0006D214DF2331001F07BF900214FF4524086
:102FE00001F076F933214DF2012001F071F9002151
:102FF0004DF2022001F06CF9342101E07000002054
:103000004DF2032001F064F900214DF2042001F09B
:103010005FF93A214DF2052001F05AF900214DF2F5
:10302000062001F055F94A214DF2072001F050F930
:1030300000214DF2082001F04BF95C214DF20920EE
:1030400001F046F900214DF20A2001F041F98121F9
:103050004DF20B2001F03CF900214DF20C2001F063
:1030600037F9A6214DF20D2001F032F900214DF281
:103070000E2001F02DF9E5214DF20F2001F028F985
:1030800001214DF2102001F023F913214DF21120FE
:1030900001F01EF901214DF2122001F019F954211D
:1030A0004DF2132001F014F901214DF2142001F02A
:1030B0000FF982214DF2152001F00AF901214DF29C
:1030C000162001F005F9CA214DF2172001F000F990
:1030D00002214DF2182001F0FBF800214DF21920D9
:1030E00001F0F6F802214DF21A2001F0F1F8012169
:1030F0004DF21B2001F0ECF802214DF21C2001F0F2
:10310000E7F834214DF21D2001F0E2F802214DF2E2
:103110001E2001F0DDF867214DF21F2001F0D8F8E4
:1031200002214DF2202001F0D3F884214DF221201C
:1031300001F0CEF802214DF2222001F0C9F8A421BD
:103140004DF2232001F0C4F802214DF2242001F0B9
:10315000BFF8B7214DF2252001F0BAF802214DF257
:10316000262001F0B5F8CF214DF2272001F0B0F86C
:1031700002214DF2282001F0ABF8DE214DF229208A
:1031800001F0A6F802214DF22A2001F0A1F8F22167
:103190004DF22B2001F09CF802214DF22C2001F081
:1031A00097F8FE214DF22D2001F092F803214DF207
:1031B0002E2001F08DF810214DF22F2001F088F81B
:1031C00003214DF2302001F083F833214DF23120FC
:1031D00001F07EF803214DF2322001F079F86D21E3
:1031E0004DF2332001F074F800214FF4534001F008
:1031F0006FF833214DF2013001F06AF800214DF2F1
:10320000023001F065F834214DF2033001F060F82E
:1032100000214DF2043001F05BF83A214DF2053007
:1032200001F056F800214DF2063001F051F84A2124
:103230004DF2073001F04CF800214DF2083001F05A
:1032400047F85C214DF2093001F042F800214DF2BF
:103250000A3001F03DF881214DF20B3001F038F8D1
:1032600000214DF20C3001F033F8A6214DF20D3063
:1032700001F02EF800214DF20E3001F029F8E52181
:103280004DF20F3001F024F801214DF2103001F021
:103290001FF813214DF2113001F01AF801214DF2FF
:1032A000123001F015F854214DF2133001F010F8EE
:1032B00001214DF2143001F00BF882214DF215304E
:1032C00001F006F801214DF2163001F001F8CA2193
:1032D0004DF2173000F0FCFF02214DF2183000F0E3
:1032E000F7FF00214DF2193000F0F2FF02214DF2FC
:1032F0001A3000F0EDFF01214DF21B3000F0E8FF25
:1033000002214DF21C3000F0E3FF34214DF21D305C
:1033100000F0DEFF02214DF21E3000F0D9FF6721E0
:103320004DF21F3000F0D4FF02214DF2203000F0AA
:10333000CFFF84214DF2213000F0CAFF02214DF26F
:10334000223000F0C5FFA4214DF2233000F0C0FF71
:1033500002214DF2243000F0BBFFB7214DF22530A1
:1033600000F0B6FF02214DF2263000F0B1FFCF2170
:103370004DF2273000F0ACFF02214DF2283000F072
:10338000A7FFDE214DF2293000F0A2FF02214DF20D
:103390002A3000F09DFFF2214DF22B3000F098FF13
:1033A00002214DF22C3000F093FFFE214DF22D3022
:1033B00000F08EFF03214DF22E3000F089FF102126
:1033C0004DF22F3000F084FF03214DF2303000F039
:1033D0007FFF33214DF2313000F07AFF03214DF2AF
:1033E000323000F075FF6D214DF2333000F070FF88
:1033F00000214FF4544000F06BFF33214DF20140A7
:1034000000F066FF00214DF2024000F061FF342120
:103410004DF2034000F05CFF00214DF2044000F04B
:1034200057FF3A214DF2054000F052FF00214DF2C6
:10343000064000F04DFF4A214DF2074000F048FFE2
:1034400000214DF2084000F043FF5C214DF209409D
:1034500000F03EFF00214DF20A4000F039FF8121CB
:103460004DF20B4000F034FF00214DF20C4000F013
:103470002FFFA6214DF20D4000F02AFF00214DF252
:103480000E4000F025FFE5214DF20F4000F020FF37
:1034900001214DF2104000F01BFF13214DF21140AD
:1034A00000F016FF01214DF2124000F011FF5421EF
:1034B0004DF2134000F00CFF01214DF2144000F0DA
:1034C00007FF82214DF2154000F002FF01214DF26D
:1034D000164000F0FDFECA214DF2174000F0F8FE44
:1034E00002214DF2184000F0F3FE00214DF2194088
:1034F00000F0EEFE02214DF21A4000F0E9FE01213B
:103500004DF21B4000E005E300F0E2FE02214DF227
:103510001C4000F0DDFE34214DF21D4000F0D8FECD
:1035200002214DF21E4000F0D3FE67214DF21F40F4
:1035300000F0CEFE02214DF2204000F0C9FE8421B1
:103540004DF2214000F0C4FE02214DF2224000F075
:10355000BFFEA4214DF2234000F0BAFE02214DF23D
:10356000244000F0B5FEB7214DF2254000F0B0FE3A
:1035700002214DF2264000F0ABFECF214DF2274054
:1035800000F0A6FE02214DF2284000F0A1FEDE214F
:103590004DF2294000F09CFE02214DF22A4000F03D
:1035A00097FEF2214DF22B4000F092FE02214DF2E7
:1035B0002C4000F08DFEFE214DF22D4000F088FEE3
:1035C00003214DF22E4000F083FE10214DF22F40DA
:1035D00000F07EFE03214DF2304000F079FE3321F1
:1035E0004DF2314000F074FE03214DF2324000F004
:1035F0006FFE6D214DF2334000F06AFE00214FF462
:10360000554000F065FE33214DF2015000F060FEA0
:1036100000214DF2025000F05BFE34214DF20350C8
:1036200000F056FE00214DF2045000F051FE3A2108
:103630004DF2055000F04CFE00214DF2065000F016
:1036400047FE4A214DF2075000F042FE00214DF2A4
:10365000085000F03DFE5C214DF2095000F038FEAC
:1036600000214DF20A5000F033FE81214DF20B5043
:1036700000F02EFE00214DF20C5000F029FEA62194
:103680004DF20D5000F024FE00214DF20E5000F0DE
:103690001FFEE5214DF20F5000F01AFE01214DF200
:1036A000105000F015FE13214DF2115000F010FEE5
:1036B00001214DF2125000F00BFE54214DF2135037
:1036C00000F006FE01214DF2145000F001FE8221AF
:1036D0004DF2155000F0FCFD01214DF2165000F0A6
:1036E000F7FDCA214DF2175000F0F2FD02214DF214
:1036F000185000F0EDFD00214DF2195000F0E8FDEA
:1037000002214DF21A5000F0E3FD01214DF21B5051
:1037100000F0DEFD02214DF21C5000F0D9FD3421F5
:103720004DF21D5000F0D4FD02214DF21E5000F06C
:10373000CFFD67214DF21F5000F0CAFD02214DF26E
:10374000205000F0C5FD84214DF2215000F0C0FD55
:1037500002214DF2225000F0BBFDA4214DF2235076
:1037600000F0B6FD02214DF2245000F0B1FDB7216A
:103770004DF2255000F0ACFD02214DF2265000F034
:10378000A7FDCF214DF2275000F0A2FD02214DF2FE
:10379000285000F09DFDDE214DF2295000F098FDEB
:1037A00002214DF22A5000F093FDF2214DF22B50F0
:1037B00000F08EFD02214DF22C5000F089FDFE211B
:1037C0004DF22D5000F084FD03214DF22E5000F0FB
:1037D0007FFD10214DF22F5000F07AFD03214DF2B4
:1037E000305000F075FD33214DF2315000F070FD86
:1037F00003214DF2325000F06BFD6D214DF233503C
:1038000000F066FD00214FF4564000F061FD3321C9
:103810004DF2016000F05CFD00214DF2026000F00D
:1038200057FD34214DF2036000F052FD00214DF2AE
:10383000046000F04DFD3A214DF2056000F048FDB6
:1038400000214DF2066000F043FD4A214DF2076071
:1038500000F03EFD00214DF2086000F039FD5C21D2
:103860004DF2096000F034FD00214DF20A6000F0D5
:103870002FFD81214DF20B6000F02AFD00214DF259
:103880000C6000F025FDA6214DF20D6000F020FD3A
:1038900000214DF20E6000F01BFDE5214DF20F609E
:1038A00000F016FD01214DF2106000F011FD132112
:1038B0004DF2116000F00CFD01214DF2126000F09C
:1038C00007FD54214DF2136000F002FD01214DF27D
:1038D000146000F0FDFC82214DF2156000F0F8FC50
:1038E00001214DF2166000F0F3FCCA214DF2176081
:1038F00000F0EEFC02214DF2186000F0E9FC00211E
:103900004DF2196000F0E4FC02214DF21A6000F063
:10391000DFFC01214DF21B6000F0DAFC02214DF2C8
:103920001C6000F0D5FC34214DF21D6000F0D0FC8D
:1039300002214DF21E6000F0CBFC67214DF21F60AA
:1039400000F0C6FC02214DF2206000F0C1FC842191
:103950004DF2216000F0BCFC02214DF2226000F02B
:10396000B7FCA4214DF2236000F0B2FC02214DF21D
:10397000246000F0ADFCB7214DF2256000F0A8FCFA
:1039800002214DF2266000F0A3FCCF214DF227600A
:1039900000F09EFC02214DF2286000F099FCDE212F
:1039A0004DF2296000F094FC02214DF22A6000F0F3
:1039B0008FFCF2214DF22B6000F08AFC02214DF2C7
:1039C0002C6000F085FCFE214DF22D6000F080FCA3
:1039D00003214DF22E6000F07BFC10214DF22F6090
:1039E00000F076FC03214DF2306000F071FC3321D1
:1039F0004DF2316000F06CFC03214DF2326000F0BA
:103A000067FC6D214DF2336000F062FC55214FF4EC
:103A1000704000F05DFCAA214FF2010000F058FC5C
:103A200052214FF2020000F053FC08214FF2030034
:103A300000F04EFC00214FF2040000F049FCCC21C4
:103A40004FF4314000F044FC00214BF2011000F033
:103A50003FFC05214FF4364000F03AFC70214FF452
:103A6000374000F035FC70214BF2017000F030FC63
:103A700001214FF4384000F02BFC03214BF60100EC
:103A800000F026FC03214BF6020000F021FC03218C
:103A90004BF6030000F01CFC02214FF43C4000F008
:103AA00017FC00214BF6014000F012FC00214BF600
:103AB000024000F00DFCD0214FF4494000F008FC1A
:103AC00002214CF6011000F003FC50214CF60210CC
:103AD00000F0FEFB50214CF6031000F0F9FB5021E2
:103AE0004CF6041000F0F4FB00214FF4545000F0A9
:103AF000EFFB55214FF4685000F0EAFB4FF488507B
:103B000000F0D6FB0120FCF74DFD4FF4245000F0EF
:103B1000CFFBBDE08848808841F663118842F8D128
:103B2000E22000F0C5FB1D2000F0BCFB022000F0ED
:103B3000B9FB042000F0B6FB0120FCF733FDE020C8
:103B400000F0B6FB012000F0ADFB0A20FCF72AFDD7
:103B5000E02000F0ADFB032000F0A4FB0C20FCF7FC
:103B600021FD012000F0A4FB0A20FCF71BFDE6204C
:103B700000F09EFB2F2000F095FBFF2000F092FB51
:103B8000FF2000F08FFBB02000F092FB202000F01F
:103B900089FB002000F086FB032000F083FB40F24D
:103BA0001F3000F07FFB012000F07CFB40F2DF10B3
:103BB00000F078FB002000F075FBB42000F078FBEB
:103BC000042000F06FFB40F21F4000F06BFB002070
:103BD00000F068FB2E2000F065FB002000F062FB87
:103BE000002000F05FFB002000F05CFB002000F0F4
:103BF00059FBB62000F05CFB022000F053FB4FF4B1
:103C0000037000F04FFB002000F04CFB172000F089
:103C100049FB152000F046FB002000F043FB00208C
:103C200000F040FBF02000F043FB032000F03AFBE3
:103C3000292000F03DFBD02000F03AFB002000F0EE
:103C400031FBBE2000F034FB052000F02BFBFE20F2
:103C500000F028FB012000F025FB002000F022FBF3
:103C6000002000F01FFB002000F01CFBB82000F03B
:103C70001FFB032000F016FB012000F013FBBA200D
:103C800000F016FB012000F00DFB642000F05EF850
:103C90002948808849F24131884217D026488088D7
:103CA00047F28971884211D02348808845F210314B
:103CB00088420BD02048808845F21051884205D0B8
:103CC0001D48808841F6631188422CD11B4800684A
:103CD00020F00F004FF02041C1F81C010846D0F839
:103CE0001C0120F47060C1F81C010846D0F81C01CA
:103CF00040F00300C1F81C010F48808847F2897129
:103D0000884208D10D48006840F440704FF02041CF
:103D1000C1F81C0107E00948006840F400704FF04A
:103D20002041C1F81C010020FDF79AFB4FF6FF70FF
:103D3000FDF76AFB15B000BD700000201C0100A05B
:103D400001490888704700000000086070B52DED3B
:103D5000048B0446BE2000F0ABFA052000F0A2FA66
:103D60002046FCF7E4FA41EC190B9FED0E0B53ECE7
:103D7000102BFCF76AFA41EC180BFCF7E5FA85B258
:103D8000284600F08FFA012000F08CFAFF2000F0A6
:103D900089FA002000F086FA002000F083FABDECDA
:103DA000048B70BD666666666666044070B5044640
:103DB0000023002689488079012805D1874880881A
:103DC00041F66311884208D184488079F0B983486C
:103DD000808841F66311884218D1082C15D2DFE89B
:103DE00004F00406080A0C0E101206240DE0072445
:103DF0000BE0042409E0052407E0012405E0002489
:103E000003E0032401E0022400BF00BF082C1CD201
:103E1000DFE804F00406090C0F12151800BF14E0C7
:103E200043F0800311E043F040030EE043F0C00391
:103E30000BE043F0200308E043F0600305E043F0AB
:103E4000A00302E043F0E00300BF00BF63488088A6
:103E500045F21051884202D14FF4585600E0362600
:103E60005E48808849F24131884205D05B488088AD
:103E700047F28971884201D143F008031946304660
:103E800000F026FA5548808841F6631188421DD01B
:103E900003F0200068B151480088504949888842A1
:103EA00014DA4E48058840884C4908800846458009
:103EB0000CE04A48008849494988884206DD47485D
:103EC00005884088454908800846458043488088E1
:103ED00045F21051884252D14049488900F0E8F932
:103EE000002000F0DFF93D494989491C88B200F003
:103EF000DFF9002000F0D6F938494989891C88B2D9
:103F000000F0D6F935490988491EC1F30F2000F0A9
:103F1000C9F932494989C91C88B200F0C9F92F4949
:103F20000978491EC8B200F0BDF92C49888900F013
:103F3000BFF9002000F0B6F928498989491C88B2E8
:103F400000F0B6F9002000F0ADF924498989891CF8
:103F500088B200F0ADF921494988491EC1F30F200C
:103F600000F0A0F91D498989C91C88B200F0A0F9A8
:103F70001A498978491EC8B200F094F92DE0174912
:103F8000488900F095F9002000F08CF9002000F03D
:103F900089F912490988491EC1F30F2000F082F9FE
:103FA0000E490978491EC8B200F07CF90B4988898E
:103FB00000F07EF9002000F075F9002000F072F9A1
:103FC00006494988491EC1F30F2000F06BF90349E7
:103FD0008978491EC8B200F065F970BD70000020F4
:103FE00000B502460B464548808841F66311884279
:103FF00047D142488079A8B940480088401E801ABD
:1040000082B23E49488900F053F9002000F04AF995
:10401000002000F047F9101200F044F9D0B200F08F
:1040200041F916E03549488900F042F9101200F0D4
:1040300039F9D0B200F036F930490988491EC1F388
:104040000F2000F02FF92D490978491EC8B200F061
:1040500029F92A49888900F02BF9181200F022F971
:10406000D8B200F01FF925494988491EC1F30F2035
:1040700000F018F921498978491EC8B200F012F9F8
:104080003AE01E48808845F21051884220D11B49F1
:10409000488900F00DF9101200F004F91749498918
:1040A000491C88B200F004F9D0B200F0FBF81349C3
:1040B000888900F0FDF8181200F0F4F80F4989899A
:1040C000491C88B200F0F4F8D8B200F0EBF813E025
:1040D0000A49488900F0ECF8101200F0E3F8D0B279
:1040E00000F0E0F80549888900F0E2F8181200F0C5
:1040F000D9F8D8B200F0D6F800BD0000700000205A
:104100002DE9F84F80460F4616461C46BB46204612
:10411000E31704EB5373DB1021464FEAE47C04EB16
:104120005C7C4FEAEC0CA4EBCC0CBCF1000F02D091
:104130004FF0010C01E04FF0000C6344224604EB09
:10414000D27C4FEA6C0C03FB0CF3DBB20093A6F1BC
:104150002000C6B200255EE00C2C07D106EB46001D
:104160002F4901EB800010F805901BE0102C05D1C1
:104170002C4800EB061010F8059013E0182C07D11E
:1041800006EBC600284901EB800010F8059009E015
:10419000202C05D1254800EBC61010F8059001E051
:1041A000BDE8F88F4FF0000A2FE009F0800030B131
:1041B0001F48394602684046FDF7EAF907E00A98C9
:1041C00028B91C48394602684046FDF7E1F94FEA34
:1041D00049604FEA1069781C87B217484088B84296
:1041E00000DCDDE7A7EB0B00A0420AD15F4608F137
:1041F00001001FFA80F810480088404500DCCFE736
:1042000006E00AF1010000F0FF0ABAF1080FCCDB6A
:1042100000BF681CC5B2009885429DDB00BFBFE7A8
:10422000BC480008304D0008205300087C6000089E
:104230000000002004000020700000202DE9F84755
:1042400004460D4690469946DDE9096704F0FF0AE9
:1042500008EB04001FFA80F809EB05001FFA80F94B
:1042600016E0444502DB5446A81985B24D4500DBF3
:1042700014E0012000903A78334629462046FFF7A3
:104280003FFF304606EBD07104EB61018CB27F1C1E
:1042900038787E2802DC38782028E2DA00BFBDE8D2
:1042A000F887000000BF01490880704700000860DF
:1042B00000BF014908807047FEFF0760024800897F
:1042C000024908807047000070000020FEFF076070
:1042D000024A1080921C118070470000FEFF0760A8
:1042E00000B58FB01C2108A8FBF7A4FF1C2101A872
:1042F000FBF7A0FF4FF020402049086020484860AD
:104300000020886000211D48C160016110214161C9
:1043100000218161C161016241624FF4805181627B
:104320000021C1624FF48041016300214163816338
:104330004164002008900F20099041200A9000203D
:104340000B9010200C9011200D9000200E900190E9
:104350000F2002900220039000200490102005906E
:10436000112006900020079001AA08A90348FCF735
:10437000A1FE08B1FCF793F80FB000BD800000204B
:10438000040100A008B500BF002000902448006888
:1043900040F08000224908600846006800F0800074
:1043A000009000BF00BF00BF0020009008460068DA
:1043B00040F0020008600846006800F0020000902B
:1043C00000BF00BF00BF002000900846006840F01A
:1043D000100008600846006800F01000009000BF60
:1043E00000BF00BF002000900846006840F00800B1
:1043F00008600846006800F00800009000BF00BF99
:1044000000BF002000900846006840F001000860EE
:104410000846006800F00100009000BF00BF08BD22
:104420003038024000B589B00020079008901C2168
:104430006846FBF7FFFE19481949086000204860EC
:1044400000211748816041F26F71C1600021016154
:104450008161FCF789FF08B1FCF721F80020079083
:10446000089007A90E48FCF773FE08B1FCF717F88F
:104470006020009041F26F70019000200290049043
:104480000C2269460648FCF7EDFE08B1FCF707F878
:104490000348FCF7B7FE09B000BD0000000400406F
:1044A000D000002000BFFEE700BFFEE77047704766
:1044B00010B5FCF7D1F910BD00B593B0302107A8B5
:1044C000FBF7B8FE142102A8FBF7B4FE00BF0020E2
:1044D00001902448006840F0805022490860084656
:1044E000006800F08050019000BF00BF00BF0020B6
:1044F00001901D48006840F480401B490860084650
:10450000006800F48040019000BF00BF01200790C8
:104510000004089002200D9041050E9104210F9196
:10452000A8211091022111910421129107A8FCF7F2
:1045300073FB08B1FBF7B3FF0F200290022003903A
:10454000002004904FF4A05005904FF48050069046
:10455000052102A8FCF746FA08B1FBF7A0FF13B04B
:1045600000BD000040380240007000400348006871
:1045700040F47000014908607047000088ED00E0D9
:1045800010B50268294B98420ED0B0F1804F0BD085
:10459000274B984208D0274B984205D0264B98428B
:1045A00002D0264B984203D122F070024B681A4386
:1045B0001E4B984220D0B0F1804F1DD01C4B98422A
:1045C0001AD01C4B984217D01B4B984214D01B4B4F
:1045D000984211D01A4B98420ED01A4B98420BD0E9
:1045E000194B984208D0194B984205D0184B984265
:1045F00002D0184B984203D122F44072CB681A4380
:1046000022F080034C6943EA040202608B68C362B3
:104610000B688362054B984202D0084B984201D147
:104620000B6903630123436110BD000000000140DA
:104630000004004000080040000C0040000401405D
:104640000040014000440140004801400018004083
:10465000001C00400020004030B5056A25F001052F
:104660000562026A4368846924F0700424F003043C
:104670000D682C4322F002028D682A43104DA84297
:1046800000D103E00F4DA84206D100BF22F008027E
:10469000CD682A4322F00402094DA84202D0094DF8
:1046A000A84207D123F4807323F400734D692B4390
:1046B0008D692B43436084614D684563026230BD60
:1046C000000001400004014030B5056A25F01005E6
:1046D0000562026A4368846924F4E04424F4407467
:1046E0000D6844EA052422F020028D6842EA051292
:1046F000124DA84200D103E0114DA84207D100BFDE
:1047000022F08002CD6842EA051222F040020B4DF1
:10471000A84202D00A4DA84209D123F4806323F4B1
:1047200000634D6943EA85038D6943EA850343606D
:1047300084614D688563026230BD00000000014065
:104740000004014030B5056A25F480750562026AEF
:104750004368C46924F0700424F003040D682C43FA
:1047600022F400728D6842EA0522124DA84200D15F
:1047700003E0114DA84207D100BF22F40062CD68CA
:1047800042EA052222F480620A4DA84202D00A4D74
:10479000A84209D123F4805323F400534D6943EA1E
:1047A00005138D6943EA05134360C4614D68C56311
:1047B000026230BD000001400004014030B5056ACE
:1047C00025F480550562036A4468C26922F4E04218
:1047D00022F440720D6842EA052223F400538D68EA
:1047E00043EA0533084DA84202D0084DA84204D13F
:1047F00024F480444D6944EA85144460C2614D68E4
:104800000564036230BD0000000001400004014067
:1048100000BFFEE702480068C0F3022070470000B6
:104820000CED00E010B5002804DB0A07130E054A62
:10483000135406E00A07140E034A00F00F031B1F6F
:10484000D45410BD00E400E018ED00E002E008C818
:10485000121F08C1002AFAD170477047002001E0FA
:1048600001C1121F002AFBD1704700001CB5FBF7E5
:10487000FFFFFFF721FEFFF785FDFFF731FDFFF793
:10488000D1FDFCF7FDFE0020FCF7EAFDFCF7D6FDAC
:104890001F20FCF7B9FD6420FFF758FA05A0182186
:1048A00064231A46CDE9001000210846FFF7C6FC34
:1048B00000BFFEE7313233343536370000000000E8
:1048C0000000000000000000000000003F40000069
:1048D00000000000000030004000300040000000F8
:1048E00009000BC03D000BC03D00090018C024406A
:1048F0007FE0224031800000180024C01B000D80A2
:104900003240018003801C4027401C80074000404B
:104910001000600000000000000000000000000027
:1049200000001F80204040200000402020401F80C9
:1049300000000000090006001F80060009000000BA
:10494000040004003F800400040000000010006028
:104950000000000000000000040004000400040047
:104960000400000000000040000000000000000003
:10497000002001C006003800400000001F802040D9
:10498000204020401F800000000010403FC0004039
:104990000000000018C021402240244018400000C0
:1049A00010802040244024401B80000002000D00A5
:1049B00011003FC0014000003C80244024402440BE
:1049C000238000001F8024402440344003800000E6
:1049D0003000200027C03800200000001B80244049
:1049E000244024401B8000001C0022C022402240A2
:1049F0001F800000000000000840000000000000D0
:104A0000000000000460000000000000000004003E
:104A10000A00110020804040090009000900090037
:104A20000900000000004040208011000A0004003E
:104A30001800200023402400180000001F802040A0
:104A4000274029401F400000004007C039000F00E8
:104A500001C0004020403FC0244024401B80000093
:104A60001F802040204020403080000020403FC078
:104A7000204020401F80000020403FC024402E40A6
:104A800030C0000020403FC024402E003000000015
:104A90000F001080204022403380020020403FC0A1
:104AA000040004003FC02040204020403FC0204080
:104AB000204000000060202020203FC02000200077
:104AC00020403FC024400B0030C0204020403FC069
:104AD00020400040004000C03FC03C0003C03C00FC
:104AE0003FC0000020403FC00C4023003FC02000DA
:104AF0001F802040204020401F80000020403FC0F9
:104B000024402400180000001F802140214020E0A4
:104B10001FA0000020403FC02440260019C00040D4
:104B200018C0244024402240318000003000204042
:104B30003FC020403000000020003F800040004087
:104B40003F80200020003E0001C007003800200008
:104B5000380007C03C0007C038000000204039C0C2
:104B6000060039C0204000002000384007C038400F
:104B700020000000304021C02640384020C0000006
:104B8000000000007FE04020402000000000700096
:104B90000C000380004000000000402040207FE027
:104BA0000000000000002000400020000000000085
:104BB0000010001000100010001000100000000095
:104BC0004000000000000000000002800540054099
:104BD00003C0004020003FC00440044003800000A8
:104BE00000000380044004400640000000000380F1
:104BF000044024403FC000400000038005400540C1
:104C000003400000000004401FC024402440200056
:104C1000000002E0055005500650042020403FC02F
:104C20000440040003C000400000044027C00040CE
:104C30000000000000100010041027E00000000039
:104C400020403FC00140070004C0044020402040F5
:104C50003FC000400040000007C0040007C004003F
:104C600003C00000044007C00440040003C000402B
:104C7000000003800440044003800000041007F09B
:104C800004500440038000000000038004400450EE
:104C900007F00010044007C00240040004000000B8
:104CA000000006400540054004C00000000004006C
:104CB0001F800440004000000400078000400440C2
:104CC00007C000400400070004C001800600040083
:104CD000060001C0070001C006000000044006C035
:104CE000010006C0044000000410071004E0018029
:104CF000060004000000044005C006400440000017
:104D00000000000004007BE04020000000000000E4
:104D10000000FFF000000000000040207BE00400E5
:104D20000000000040008000400020002000400003
:104D30000000000000000000000000000000000073
:104D40000000000000001FCC000C0000000000006C
:104D50000000080030006000080030006000000023
:104D6000022003FC1E20022003FC1E200220000063
:104D700000000E1811043FFF10840C7800000000A2
:104D80000F0010840F3800C00778188400780000E6
:104D900000780F8410C411240E9800E400840008E9
:104DA0000800680070000000000000000000000023
:104DB00000000000000007E0181820044002000076
:104DC000000040022004181807E000000000000066
:104DD0000240024001800FF00180024002400000CA
:104DE0000080008000800FF80080008000800000BC
:104DF0000001000D000E0000000000000000000097
:104E00000000008000800080008000800080008022
:104E10000000000C000C000000000000000000007A
:104E20000000000600180060018006001800200045
:104E3000000007F0080810041004080807F000003C
:104E40000000080408041FFC000400040000000027
:104E500000000E0C10141024104411840E0C0000DD
:104E600000000C1810041104110412880C700000CA
:104E7000000000E00320042408241FFC002400009C
:104E800000001F9810841104110410881070000095
:104E9000000007F008881104110418880070000051
:104EA00000001C00100010FC13001C00100000008B
:104EB00000000E3811441084108411440E38000094
:104EC00000000700088C10441044088807F0000018
:104ED000000000000000030C030C000000000000B4
:104EE00000000000000101060000000000000000BA
:104EF0000000008001400220041008081004000097
:104F000002200220022002200220022002200000B3
:104F10000000100408080410022001400080000076
:104F200000000E001200100C106C10800F0000002A
:104F300003E00C1813E4142417C4082807D0000059
:104F40000004003C03C41C40074000E4001C0004B3
:104F500010041FFC1104110411040E8800700000DD
:104F600003E00C1810041004100410081C100000BA
:104F700010041FFC100410041004080807F00000BF
:104F800010041FFC1104110417C4100408180000B9
:104F900010041FFC1104110017C0100008000000CD
:104FA00003E00C181004100410441C7800400000AA
:104FB00010041FFC10840080008010841FFC10046B
:104FC0000000100410041FFC100410040000000076
:104FD00000030001100110011FFE1000100000006E
:104FE00010041FFC110403801464181C100400003A
:104FF00010041FFC1004000400040004000C000056
:1050000010041FFC1F0000FC1F001FFC1004000008
:1050100010041FFC0C04030000E010181FFC10001B
:1050200007F00808100410041004080807F0000036
:1050300010041FFC10841080108010800F000000EE
:1050400007F0081810241024101C080A07F20000AA
:1050500010041FFC1104110011C011300E0C0004CB
:1050600000000E1C11041084108410441C38000031
:105070001800100010041FFC10041000180000009D
:1050800010001FF810040004000410041FF81000A2
:1050900010001E0011E0001C007013801C001000A6
:1050A0001FC0103C00E01F0000E0103C1FC00000CB
:1050B0001004180C163401C001C01634180C10046A
:1050C00010001C00130400FC13041C00100000005E
:1050D0000804101C1064108413041C041018000031
:1050E0000000000000007FFE40024002400200007D
:1050F000000030000C0003800060001C0003000072
:1051000000004002400240027FFE0000000000005C
:10511000000000002000400040004000200000008F
:105120000001000100010001000100010001000177
:1051300000004000400020000000000000000000CF
:1051400000000098012401440144014400FC0004D3
:1051500010001FFC0088010401040088007000009A
:1051600000000070008801040104010400880000B0
:105170000000007000880104010411081FFC0004F5
:10518000000000F8014401440144014400C800004B
:105190000000010401040FFC1104110411001800A7
:1051A000000000D601290129012901C901060000DA
:1051B00010041FFC008401000100010400FC000435
:1051C00000000104190419FC0004000400000000A0
:1051D0000000000300010101190119FE0000000098
:1051E00010041FFC0024004001B4010C0104000065
:1051F0000000100410041FFC000400040000000064
:10520000010401FC0104010001FC0104010000FC97
:10521000010401FC008401000100010400FC000401
:10522000000000F8010401040104010400F800007A
:10523000010101FF008501040104008800700000E5
:1052400000000070008801040104010501FF000155
:105250000104010401FC008401040100018000003C
:10526000000000CC01240124012401240198000045
:1052700000000100010007F8010401040000000023
:10528000010001F8000400040004010801FC00040E
:10529000010001800170000C00100160018001001C
:1052A00001F0010C003001C00030010C01F00100E0
:1052B00000000104018C00740170018C01040000E5
:1052C000010101810171000E0018016001800100DF
:1052D00000000184010C013401440184010C000030
:1052E000000000000000000001003EFC40024002FF
:1052F0000000000000000000FFFF000000000000B0
:105300000000400240023EFC0100000000000000DE
:10531000000060008000800040004000200020006D
:10532000000000000000000000000000000000007D
:10533000000000000000000000000000000000006D
:10534000000000000000000000000000000000005D
:105350000000000F80380FFE380F8038000000007A
:10536000000000000000000000000000000001003C
:10537000000600000C0000380000310000060000AC
:105380000C000038000030000000000000000000A9
:1053900061800067F807F98000618000618000612A
:1053A000800061800067F807F980006180000000DC
:1053B00000000000000001C0E003E0F00630080437
:1053C00018081FFFFE040E080787F00381E00000A5
:1053D0000000000001F000060C00040408060C7038
:1053E00001F9C0000E00003BE000EC1807080804BB
:1053F0000C180003E00000000001E00007F003F8D3
:1054000018041C0804170807E1D003C0E00023B00B
:10541000003C08002008000010000000000000010F
:1054200000003100003200001C00000000000000FD
:10543000000000000000000000000000000000006C
:10544000000000000000000000000000000000005C
:105450007F0001FFC00780F00C001810000420003E
:10546000020000000000002000021000040C0018E0
:105470000780F001FFC0007F000000000000000076
:105480000000000000000000000000004200006674
:1054900000006600003C0000180003FFC000180078
:1054A000003C0000660000660000420000000000B2
:1054B000080000080000080000080000080001FFC4
:1054C000C0000800000800000800000800000800F4
:1054D00000000000000100003100003200001C004C
:1054E00000000000000000000000000000000000BC
:1054F0000000000000000000080000080000080094
:105500000008000008000008000008000008000073
:10551000080000080000000000000000000000007B
:1055200038000038000038000000000000000000D3
:10553000000000000000000000000000000000006B
:10554000000600001C000070000180000E00003802
:105550000000C0000700001C000030000000000038
:10556000000000007F8001FFE00380700600180447
:10557000000804000806001803807001FFE0007FA7
:105580008000000000000000000001000801000889
:1055900001000803FFF807FFF800000800000800FA
:1055A000000800000000000000000001C03802C038
:1055B00058040098040118040218040418061C1862
:1055C00003F81801E0F800000000000000000001EE
:1055D000C0E003C0F0040008040808040808061826
:1055E0000803F41801E7F00001E0000000000000EB
:1055F000000000000300000D000011000061000029
:10560000810803010807FFF80FFFF80001080001F7
:10561000080000000000000000E007FCD0060808B9
:10562000061008061008061008061838060FF006BF
:1056300007C0000000000000000000003F8001FFE4
:10564000E00384300208180410080410080410084D
:10565000071810030FF00007C00000000000000052
:10566000000003C0000700000600000600F806075F
:10567000F806180006E00007000006000000000021
:1056800000000001E1E003F7F006341004180804FC
:105690001808040C08040C0806161803F3F001C1DE
:1056A000E000000000000000F80003FC30030638B2
:1056B0000402080402080402080404100308F001AC
:1056C000FFC0007F0000000000000000000000009C
:1056D00000000000000000007038007038007038D2
:1056E00000000000000000000000000000000000BA
:1056F000000000000000000000000000301A003030
:105700001C0000000000000000000000000000007D
:10571000000000000000000800001400002200004B
:1057200041000080800100400200200400100800B9
:1057300008000000000000002100002100002100FE
:1057400000210000210000210000210000210000B4
:1057500021000021000000000000000000000800FF
:105760000804001002002001004000808000410079
:1057700000220000140000080000000000000003E8
:10578000C00004C000040000080038080F380808F2
:10579000380810000C300007E00003C000000000D3
:1057A000000000003F8000FFE0038070020F100641
:1057B000708804C088048308047F8802C0900301B5
:1057C0002000FE400000080000180001F8003E081C
:1057D00001C20007020007E20000FE00001FC8002F
:1057E00001F800003800000804000807FFF807FF70
:1057F000F80408080408080408080408080618083B
:1058000003F41801E7F00001E000000000000000D0
:105810003F8001FFE00380700200180400080400CC
:10582000080400080400100600200780C0000000E3
:1058300004000807FFF807FFF80400080400080444
:10584000000804001802001003807001FFE0007FD0
:105850008000000004000807FFF807FFF8040808AC
:10586000040808040808040808043E0804000806A0
:10587000001801006000000004000807FFF807FF9F
:10588000F8040808040800040800040800043E00A6
:10589000060000060000018000000000000000007B
:1058A0003F8001FFE0038070060018040008040236
:1058B000080402080203F00783F00002000002005F
:1058C00004000807FFF807FFF804080800080000B4
:1058D000080000080000080004080807FFF807FF98
:1058E000F80400080000000000000400080400089C
:1058F00004000807FFF807FFF80400080400080484
:105900000008000000000000000000000006000089
:105910000700000104000104000104000307FFFE6A
:1059200007FFFC0400000400000400000400080756
:10593000FFF807FFF8040C08001800003E0004C739
:10594000800503C80600F8040038040018000008A9
:1059500004000807FFF807FFF8040008000008002B
:1059600000080000080000080000080000180000FF
:105970006000000004000807FFF807800807FC002B
:10598000007FC00003F80007C00078000780080708
:10599000FFF807FFF804000804000807FFF80700F5
:1059A0000803C00000E000003800001E00000700EF
:1059B0000001C00400F007FFF80400000000000030
:1059C0007F8001FFE00380700600180400080400D7
:1059D0000806001803003001FFE0007F800000008F
:1059E00004000807FFF807FFF80404080404000493
:1059F0000400040400040400060C0003F80001F095
:105A000000000000000000007F8001FFE0038070C4
:105A10000600880400880400C806003C03003E011C
:105A2000FFE6007F8400000004000807FFF807FF7E
:105A3000F8040808040800040C00040F00040BC05C
:105A40000610F003F03801E0080000080000000133
:105A5000E0F803F030063010041808041808040CAD
:105A600008040C080206180207F00781E000000095
:105A70000180000600000400000400000400080784
:105A8000FFF807FFF8040008040000040000060007
:105A90000001800004000007FFE007FFF004001889
:105AA00000000800000800000800000800000804CA
:105AB000001007FFE004000004000006000007E0FB
:105AC0000007FE00041FE00001F80000380001E0BC
:105AD000043E0007C00006000004000004000007A8
